:020000040800F2
:1000000000C00020553D0008513D00084F3D00084C
:100010004F3D00084F3D00084F3D00080000000024
:10002000000000000000000000000000513D00083A
:10003000513D000800000000513D0008B5160008C1
:100040004F3D00084F3D00084F3D00084F3D000860
:100050004F3D00084F3D00084F3D00084F3D000850
:100060004F3D00084F3D00084F3D00084F3D000840
:100070004F3D00084F3D00084F3D00084F3D000830
:100080004F3D00084F3D00084F3D00084F3D000820
:100090004F3D00084F3D00084F3D00084F3D000810
:1000A0004F3D00084F3D00084F3D00084F3D000800
:1000B000312A00084D2A0008692A00084F3D00082F
:1000C0004F3D00084F3D00084F3D00084F3D0008E0
:1000D0004F3D00084F3D00084F3D00084F3D0008D0
:1000E0004F3D00084F3D00084F3D00084F3D0008C0
:1000F0004F3D00084F3D00084F3D00084F3D0008B0
:100100004F3D00084F3D0008852A00084F3D00087C
:100110004F3D00084F3D00084F3D00084F3D00088F
:100120004F3D00084F3D00084F3D00084F3D00087F
:100130004F3D00084F3D00084F3D00084F3D00086F
:100140004F3D00084F3D00084F3D00084F3D00085F
:1001500001460022212001F081B90000014601483A
:1001600001F0C6B80498000803460A460249086828
:10017000194601F04DB900BFA808002070B5224B08
:100180000522224C1A70224B22781B7821489A4271
:1001900024BF00232370217801F0AAF825780C23CE
:1001A0005D431D4B1D481E6874196168A26801F00B
:1001B0009FF842F210721A4B1A490D201A60FFF78D
:1001C000D3FF7559284604F0F9FA2946FFF7CCFF0A
:1001D00015490320FFF7C8FF6568284604F0EEFACA
:1001E0002946FFF7C1FF11490220FFF7BDFFA468B0
:1001F000204604F0E3FA2146FFF7B6FFBDE8704061
:1002000002200B49FFF7B0BFC8090020D809002021
:10021000D009002014980008CC0900202498000878
:10022000440900203D9800084B9800084F980008AA
:10023000AE99000837B5114B114C186822681D465D
:10024000904219DD0F49801A1144FFF78DFF0028F5
:10025000C2BF2368C018206022682B689A420BD165
:100260001A23074A02A901F8013D00231360034A3B
:1002700001201360FFF778FF03B030BDDC090020D8
:100280003C090020AC08002010B50C4B0C4C186841
:100290008021224601F0C5F800280EDD094B1860C8
:1002A000002323540220FFF753FF074B1B7823B191
:1002B0002046BDE8104001F01BB810BDA808002082
:1002C00048090020380900202C09002008B50A4BF5
:1002D0001B6803B19847094A00231370084A4FF47A
:1002E000FA711160074A08481360084A1360BDE8B4
:1002F000084000F0FDBF00BFD4090020C80900205D
:1003000044090020DC090020529800083C09002024
:1003100010B5064C0648217800F0EAFF2378013337
:100320002370BDE81040FFF7D1BF00BFD8090020FF
:1003300060980008044B186820B10138186008B9AB
:10034000FFF706BF704700BF44090020084B10B5F7
:1003500000241C70074B084C1C60084B1860084BAD
:100360000361084B4361084B1970084B1A6010BDBC
:10037000D8090020300900205D010008A8080020ED
:100380008902000835020008D0090020CC090020AD
:10039000054B1860054B1960054B1A60054B1B781F
:1003A0000BB1FFF793BF7047D40900203409002038
:1003B000A4080020D0090020802810B5024617DCD0
:1003C0000D4B1B78062B13D10C4B18781C4678B9B3
:1003D0000B4B1A600B4B186012B10B4804F000F87D
:1003E0000A490C20FFF7C0FE01232370002010BD36
:1003F0004FF0FF3010BD00BFC8090020E009002009
:10040000DC0900203C090020AC0800207D98000891
:1004100018B1034B1860002070474FF0FF30704751
:100420003009002010B5044608490220FFF79CFE61
:100430002CB1204604F0C2F92146FFF795FEBDE835
:10044000104002200249FFF78FBE00BF8A980008C3
:10045000AE99000870B50A4E3378052B0CD80C25E0
:100460006B43084CE058FFF7DDFF327805FB024391
:100470001A89054B1A6070BDBDE87040FFF726BFB2
:1004800040090020BC97000844090020012838B525
:1004900012D002D302284CD038BD7D4B1B78012BE3
:1004A00004D8BDE838400120FFF752BE052B3CD1EF
:1004B000784800F01DFF85E0754C2378052B34D873
:1004C000DFE813F0060012002100D60033002A00F6
:1004D000714B1B6803B19847012323706F4B4FF496
:1004E000FA721A606E480AE06E4B1B6803B19847B7
:1004F00044F6206202232370684B6B481A60BDE803
:10050000384000F0F5BE03232370684B0022684892
:100510001A7000F0EDFE3EE00623664A23700023C9
:1005200013705E4A64481360E9E7BDE83840FFF79E
:10053000CDBE574B1B78022B12D1604B1B68002B92
:1005400000F0A4805E485F4904F03CFB002800F006
:100550009D80C37903F0FB03312B40F09780A0E727
:10056000032B1CD1514D2C78052C00F28F80564A5C
:100570000C2303FB04235968504B1B68002B00F02D
:1005800085804F4804F01EFB00287FD00134E4B280
:10059000062C2C7085D0BDE83840FFF75BBF052BDB
:1005A00014D1464B1B68002B70D04548474904F0D6
:1005B00009FB00287FF475AF4148454904F002FB70
:1005C000002863D0BDE83840FFF7A2BE062B5DD1FE
:1005D0003B483F4904F0F6FA08B1FFF777FE354C87
:1005E0002378012B0FD1354B1B6863B1344839494F
:1005F00004F0E8FA38B142F2107202232370274B5C
:100600001A60FFF717FE2378022B0FD1324B1A68BE
:10061000324B1B689A4209D12948314904F0D2FA79
:1006200020B11E4A00231360224A1370244C2D4926
:10063000204604F0C7FA0146A8B1204B221A1B68D5
:1006400000201A440823CC5C2C2C19D0934213DAD6
:10065000303C0A25013305FB0040F4E7224A1268CA
:100660000AB1194490471648204904F0ABFA68B122
:10067000BDE83840FFF782BD1D4800F039FEF2E7C3
:1006800001331C189442E9DB1A48F6E738BD00BF75
:10069000C80900208D980008340900204409002072
:1006A000A5980008A4080020B4980008400900207C
:1006B000C5980008E0090020D398000838090020F8
:1006C00048090020E5980008BC970008ED9800084C
:1006D000F8980008FE9800083C090020DC0900207A
:1006E000029900080799000830090020289900089D
:1006F000339900081099000837B50A4C1A230028CE
:1007000018BF044602AD204605F8013D04F056F836
:100710002146FFF729FD29460120FFF725FD03B0FB
:1007200030BD00BF4F990008044B1A7810B142F059
:10073000010201E022F001021A7070472C0900202A
:10074000084600F0D5BD0000024B012118680A469A
:1007500000F070BEE4090020024B0021186801225D
:1007600000F068BEE409002010B5064C00210A46DE
:10077000206800F05FFE206801210022BDE81040E3
:1007800000F058BEE40900201FB504782CB1212CDC
:100790001CD14078FFF77AFE18E0FFF7CBFD0D4A39
:1007A00013680133B3F57A7F01D813600EE014604B
:1007B000094A10211368684601331360074A03F0A1
:1007C000D3FE6946FFF7F8FD01F024FA002004B0DB
:1007D00010BD00BFEC090020F0090020A29900081C
:1007E0000528F7B564D13D4D4FF40070294600F05F
:1007F0003DFB031E01DC00256CE029460024EC547F
:1008000000F06EFE2846364901AA04F01DFB48B1EF
:10081000344B334943F8240001AA002004F014FBB0
:100820000134F4E7002CE6D02E4F2F493E683046C5
:1008300003F0E6FE054660B9012C02D105202B49E4
:1008400004E07C68204603F0B9FF2146FFF7B4FDC1
:1008500040E03046264903F0D3FE054628B9012C76
:1008600008BF2046FFF760FF34E03046214903F01F
:10087000C7FE054628B9012C18BF7868FFF7D2FDDE
:1008800028E030461C4903F0BBFE054628B9012C80
:1008900018BF7868FFF730FF1CE03046134903F0BB
:1008A000AFFE05460028A6D1144800F021FD11E056
:1008B000042804D11249052000F0DAF809E00728DD
:1008C00002D14FF0FF3002E0082894D1012000F05F
:1008D00063FE0546284603B0F0BD00BF180A00209D
:1008E000AC990008F8090020B19900084F99000858
:1008F000B6990008BB990008BE990008C199000884
:10090000000000202DE9F04100F076F808210020D9
:1009100001F0E2F902210622002001F067F902212C
:100920000722012001F062F902200146082201F0AD
:100930005DF909220221032001F058F9234800F053
:1009400069F80021072000F031FD0024204D4FF40C
:10095000E1380827C0F8048044720772286000F06C
:1009600047FD00F0A7FD28681A4900F01BFA214650
:10097000204600F01BFD0225174A0126057144712F
:100980008671106000F034FD3146072000F00EFD46
:10099000124EC0F8048044720772306000F028FDE7
:1009A000294630680E4AFFF7D1FC0E48FFF730FDAC
:1009B0000D490E4A0E48FFF7EBFC0E4800F098FC7C
:1009C00000F030F82046BDE8F08100BF890700083C
:1009D000F4090020E1070008E4090020E8090020EC
:1009E000049A000841070008590700084907000851
:1009F00069070008C699000808B500F0C5FC00F0BA
:100A0000D7F800F021FD024B00221A6008BD00BF9C
:100A1000180C002008B1024B18600020704700BF7E
:100A2000180C002007B500F09BFC01A800F02EFD7B
:100A30000028F8D09DF8043033B90B4B186801300A
:100A4000186000F079FC08E0012B06D19DF8050044
:100A5000BDF8061000F062FCE7E7044B1B68002BB2
:100A6000E3D001A89847E0E71C0C0020180C0020F8
:100A70002DE9F04F8BB0804689461F2002A900F077
:100A8000BBF9064610B90420474987E000258DF8D8
:100A900007508DF804008DF805508DF80650454537
:100AA0006CDA0AAC59F8257014F824AD384602A95E
:100AB000524603F0B1FE834600285DD19DF8063012
:100AC00054440133DBB2012B04F104048DF80630E9
:100AD00013D1204607EB0A01CAF11F0203F0E6FE1C
:100AE000A04204D103F06AFE8DF8050044E0041B27
:100AF00080F800B08DF805403EE0022B0DD12B4868
:100B000000F01AFA02A800F017FA02A803F056FE45
:100B10009DF8073018448DF80700202000F0B8F940
:100B20009DF807300133DBB28DF807309B07F4D115
:100B3000384600F001FA384603F040FE9DF80730D1
:100B40001844C0B250288DF8070002D9174800F0A9
:100B5000F3F99DF805E09DF804000023734504DBDC
:100B60000022E2548DF8053006E03A18D15CE25CD0
:100B70009142F5D10133F1E7013590E79DF8060088
:100B800078B1012805D9094800F0D6F900F094FBA6
:100B900006E00AAB99199DF80500203900F070FABB
:100BA00001200BB0BDE8F08F1C9A0008AE99000838
:100BB000014B00221A607047380E0020124B70B5AE
:100BC0001A681C4612F0010108D0900708D5510799
:100BD00009D5130715D40321082306E0012304E0F7
:100BE0000121022301E00221042386204143074D15
:100BF000802668186E521343002181804180236053
:100C000070BD002070BD00BF380E0020200C0020F9
:100C1000074BC01A074B4010584303289FBF064993
:100C2000012303FA00F20B689CBF93430B607047EB
:100C3000200C00206B4CA407380E00208088B0FAEE
:100C400080F04009704782880088131A5842584142
:100C500070478088704730B582880488A2420AD2E3
:100C60004388551C1344A342A8BF1B1B0344858023
:100C70009971012030BD002030BD838883B1438845
:100C80005A1C03449B7942800B70038842889A4225
:100C900024BF002343808388013B83800120704769
:100CA000184670472DE9F041848805468C42A8BF5C
:100CB0000C469046D4B14688038826449E4207DD00
:100CC000F61AA71BD019A91D324603F089FB02E0D2
:100CD000274608BF002669884046294406313A461F
:100CE00003F07EFBAB886E801B1BAB802046BDE80B
:100CF000F0812DE9F0410D46838890460288194421
:100D00009142C8BFD51A0646D5B144881C449442C6
:100D100001DBA41A0AE06319934207DD9A1AAF1A9D
:100D200008EB0701063003F05BFB00E02F463019AB
:100D3000063041463A4603F053FBB3882B44B38058
:100D40002846BDE8F081000037B5124800F064FC89
:100D500000281CDB104C02AA204490F880300121AE
:100D600002F8013D0D4B186800F052FB50B90948DC
:100D70009DF8075000F064FC002808DB204480F850
:100D8000805004E0064A136801331360DDE703B0C6
:100D900030BD00BF6C0F00204C0E0020580F00200B
:100DA000540F00200D4A002310B513800C4A8024F4
:100DB00013600C4A146053609360D46013615361F4
:100DC00048B1094A0261094A4261094A1160094A67
:100DD0001060184610BD4FF0FF3010BD500F0020BE
:100DE0004C0F0020600F002051110008490D000831
:100DF0005C0F0020580F00202DE9F041174D804670
:100E000028880F4640B30646741E1548214600F058
:100E10003CFC002809DB134B1A5C134B1B68134482
:100E20005B785B0703D15F2A01D000240BE02646E4
:100E3000EAE72B8899420ADA094800F026FC094BB8
:100E40001B5C3B550134444504EB0601F1DB0023F8
:100E50003B552046BDE8F081BDE8F081500F0020F1
:100E6000600F00204C0E00202C000020064B10B517
:100E70009C688442A8BF044608462246034903F002
:100E8000AFFA204610BD00BF600F00204C0E0020BE
:100E9000104B13B55B6904466BB90F4B02AA02F8FD
:100EA000010D0121186800F0B3FA20B10B4A136854
:100EB0000133136009E00A4800F0D4FB0028E4B2D3
:100EC00005DB084B184480F88040012000E000203A
:100ED00002B010BD600F0020580F0020540F0020FA
:100EE0006C0F00204C0E0020114A70B5956800234D
:100EF000002D19DD536093600E4E348834B1082004
:100F0000FFF7C6FF3388013B3380F5E7202001342B
:100F1000FFF7BEFFAC42F9D1002408200134FFF7EF
:100F2000B7FFAC42F9D100E01D46284670BD00BFB6
:100F3000600F0020500F0020F8B5054603F03EFC7E
:100F4000104B01465B690BB12C460BE00E4B2A4659
:100F5000186800F05DFA0028F6DD0C4A2C181368BA
:100F600003441360274614F8016B4EB1084800F0A3
:100F700079FB002804DB074B184480F88060F1E718
:100F8000781BF8BD600F0020580F0020540F002080
:100F90006C0F00204C0E00202DE9F8431D4B1E88DD
:100FA00026B9BDE8F8431C48FFF7C6BF1B4F711EAA
:100FB00038461980BC6800F068FB81461848FFF786
:100FC000BBFFB846A41B0025A5420EDAA919134899
:100FD00000F05BFB0746134B01351A5C03F8092050
:100FE000185CFFF755FFB946EEE72020FFF750FFEA
:100FF000002C04DB0A48FFF79FFF013CF8E7D8F814
:101000000830002BC2BF054A03F1FF339360BDE8EF
:10101000F88300BF500F0020219A0008600F0020C5
:10102000239A00084C0E0020104A10B5138804467D
:101030001B1803D40E4989688B4204DDBDE81040BB
:101040000C48FFF779BF0028138007DC0134012C1E
:1010500003D00948FFF770FFF8E710BD14F1FF3423
:1010600003D30648FFF768FFF8E710BD500F0020D4
:10107000600F0020219A0008239A0008259A000892
:101080002DE9F0478946064600284AD0002948D075
:10109000264B9C6819682218914242DD244D9A60C3
:1010A000B5F80080C8EB0404671E002F11DB06EBC7
:1010B000080139441D4800F0E8FA07EB08018246B0
:1010C0001A4800F0E2FA1B4B013F1A5C03F80A20B1
:1010D000EBE74F46C9EB0703B3420ADA2988134806
:1010E0004B1C2B8000F0D1FA17F8012B114B1A542E
:1010F000F0E70027A3199F420ADA07EB08010B4823
:1011000000F0C3FA0B4B0137185CFFF7C1FEF1E7A3
:1011100024B10948FFF710FF013CF9E72888BDE832
:10112000F0874FF0FF30BDE8F08700BF600F002070
:10113000500F00204C0E0020239A000807B502A98A
:1011400001F8010D0120FFF79BFF03B05DF804FBE0
:101150002DE9F0414F4B102118684F4A00F061F91A
:10116000061E3FDD4D4A4FF0000813682E2733441A
:101170001360494B08F1010513F80820A2F1200182
:101180005E2902D81746012481E0082A62D0092A84
:1011900062D00D2A28D07F2A60D01B2A6DD1B5429B
:1011A0005ED05A5D5B2A0DD11D446B78412B5AD01D
:1011B000422B5BD0432B5CD0442B354614BF00241C
:1011C0000A2464E04F2A57D11D446B78502B56D027
:1011D000512B57D0522B58D0532B354614BF0024D7
:1011E0000E2454E0BDE8F0812D48FFF7A5FEA84687
:1011F00005242C4B1B685BB9013C0D2C27D8DFE87C
:1012000004F00D111123142323231C1E2323232355
:101210002046394698470028EED018E03846FFF7B8
:101220008DFF14E0FFF7B8FE11E01F4A0023138082
:101230001E4A1F485360936007E0012001E04FF011
:10124000FF30FFF7F1FE02E01A48FFF775FEB542E6
:101250008FDB7FE702241AE0042418E0032416E061
:101260003546062413E03546072410E035460824A9
:101270000DE0354609240AE03546002407E03546EE
:101280000B2404E035460C2401E035460D24A84625
:10129000AFE700BF580F00203C0E00204C0F00208D
:1012A000AE9900085C0F0020500F0020600F002056
:1012B000299A0008219A000810B50A48FFF73CFE59
:1012C000002109484C1C8368994208DA00F0DDF9D6
:1012D000064B185C18B1FFF7DBFD2146F1E720460D
:1012E00010BD00BF299A0008600F00204C0E00209E
:1012F0000FB410B5C2B044AB53F8042B02ACFF21BD
:101300002046019305F056F8002323542046FFF7AA
:1013100013FE42B0BDE8104004B07047032907D85F
:1013200001EBC001034800EB8101CB6803B1184712
:10133000704700BF7C0F002038B505460024074BDE
:101340002344DA6942B1D26812B1587829469047ED
:101350002034B4F5807FF2D138BD00BF7C0F00206F
:1013600010B500F0E1F90024064B2344DA693AB1E4
:1013700012690AB1587890472034B4F5807FF3D1D0
:1013800010BD00BF7C0F002010B500F09FF90024B5
:10139000044B21464FF4807203481C6003F096F81A
:1013A000204610BD780F00207C0F00202DE9F04171
:1013B0000D4E88463568072D02DD0020BDE8F0811E
:1013C0000A4F6D017C1900F0C1F90028F5D033688F
:1013D000E0615A1C7B55002384F80180A3703260C1
:1013E0002046BDE8F08100BF780F00207C0F002070
:1013F000024610B5C36904469B68407812F8041B86
:10140000984710B90123A37010BD4FF0FF3010BDF5
:1014100083781BB1C36940789B6918474FF0FF3050
:10142000704783781BB1C36940785B6918474FF0F8
:10143000FF30704783781BB1C36940789B691847B8
:101440004FF0FF3070470000034B10221A6000225B
:101450005A609A60704700BFBC10002070B5064605
:1014600008480D46144600F0FDF80028A1BF064BC1
:1014700003F8206003EB80004570A6BF4480012084
:10148000002070BDBC1000207C10002010B5044668
:10149000064800F0C1F80028A1BF054B53F82030E2
:1014A00001202360B8BF002010BD00BFBC10002089
:1014B0007C100020074B002010221A6058609860B2
:1014C000054B4FF480721A6058609860034B188087
:1014D000704700BFC810002018110020D410002051
:1014E000B0F5807F2DE9F84306460F4647DC254CD2
:1014F000A368226801339A4216DC224800F08CF877
:101500000028F4DB204B214A03EB800040889168DF
:101510008142ECDB536814680344A342A8BF1B1B41
:10152000091A53609160E2E7184DAB682A683344AA
:101530009A42E2DD204600F095F8B0F1000818DB91
:101540002846D5F8089000F08DF80025B54206DB56
:101550000D4B23F8289003EB88035D8009E00028F9
:10156000F6DB7A5D0A4B01351A54084800F07AF828
:10157000ECE7A268074B01201A80BDE8F883002041
:10158000BDE8F883C8100020D610002018110020F4
:1015900024110020D41000201A4AF8B513881844EA
:1015A00080B2108000B2002802DA00201080F8BD5E
:1015B000154B9968884202DB11800020F8BD5C68F9
:1015C0001B6804449C42A4BF94FBF3F203FB124447
:1015D000FFF78AFC0D4B00251E4633F8247006EBFE
:1015E00084035B889D4205D20948E91900F04DF853
:1015F000002801DA0120F8BD064B0135185CFFF721
:101600009DFDECE7D4100020C8100020D61000206B
:101610001811002024110020826810B5002A03460A
:101620000BDD40681C68411CA142596002F1FF3289
:10163000A4BF002159609A6010BD4FF0FF3010BD6B
:10164000836801688B420ADA426812B90139416045
:1016500001E0013A426001338360406870474FF017
:10166000FF3070478368026810B593420ADA416818
:101670005C1C8460C818904206DB90FBF2F302FB0E
:10168000130010BD4FF0FF3010BD00290CDB836844
:10169000994209DA436819440368994207DB91FBD0
:1016A000F3F003FB101070474FF0FF30704708460F
:1016B00070470000034A136801331360024B012294
:1016C0001A607047281200202412002008B501F08B
:1016D00009FE104B00221A600F4B104A1B689B1A20
:1016E0000F4A136000F05EFA01F0DAFB00F09CF99B
:1016F00001F040FA00F0EEFB0A494FF47A7002F074
:101700007DFB02F099FB02F09FFBBDE8084001F071
:1017100027BC00BF301200200000000874350020F4
:101720002C12002000A24A0408B501F03DFC064B33
:101730001A683AB1002018600146BDE80840024628
:10174000FFF78CBE08BD00BF2412002007281AD85E
:10175000DFE800F00407190A0D101316084600F020
:10176000A3BB084600F04AB9084601F099B90846FB
:1017700001F0AEB9084601F0C3B9084601F0DEB980
:10178000084601F05DBB002070470000044A1423A6
:1017900003FB0020FF23437000230361704700BF59
:1017A0003412002014235843034AFF2311184B70AE
:1017B00000230B611354704734120020002070473F
:1017C000034A142303FB002003699878704700BF85
:1017D000341200202DE9F84F07463E481423824674
:1017E00003FB0703904612F802BF89460633002127
:1017F000594509DA12F8010F11282BD84FF6FF705E
:10180000013123F8020FF3E74546142303FB07A336
:1018100000249C7035F8032BDC70DA801C715C4569
:101820002CD02E5D0F2E0BD82B4B0022985D2B4B0E
:1018300033F81610134600F021FA70B10134EEE7C8
:1018400044F6226044F62063103E012E94BF1E46EB
:10185000064604E044F6226638E044F623662C444B
:10186000A54233D015F8013B0F2BF9D81A4AD05CAA
:101870001A4A32F8131000F015FAF1E740F2093075
:1018800001F0B8FD164801F0E6FB154801F0E8FB51
:10189000134801F0A9FB124801F0E7FB104801F0E2
:1018A000EFFB03210E4801F0C1FB0D4801F08CFB5A
:1018B0000B4801F09EFB0A4801F0AEFB142303FB2A
:1018C00007A7002687F80190C7F810807042BDE88E
:1018D000F88F00BF341200202C9A00085C9A000890
:1018E00000240140054A142303FB00208378012BC8
:1018F00003D1C3880BB1013BC38070473412002071
:1019000010B5124C1423002903FB00430ADA1B799B
:101910000A2101FB00304FF6FF71043034F810004B
:1019200088420CE01B699B7899420CDA0A2303FB7E
:1019300000104FF6FF71043034F810308B4202D0A3
:101940001360012010BD002010BD00BF3412002024
:10195000F8B5284E142404FB0064A3780546012B37
:101960000BD002D3022B11D040E02269224891789B
:10197000033201F08AFB012306E0E388002B38D113
:101980001D4801F029FB0223A370F8BD1A4801F09D
:1019900071FB70B31848E77801F070FB0A2303FB72
:1019A000057321690433897836F813207B1C8B4238
:1019B00080B2A8BF00239042E3700ED00A2303FB3D
:1019C0000573043326F81300142303FB0563012079
:1019D0001F7159780246FFF741FD142303FB05658B
:1019E0002B691B88EB800123AB70F8BD0023A3702B
:1019F000E370F8BD3412002000240140002810B527
:101A00000CDC14235843064A115C131831B9012425
:101A10001454FF225A701961024810BD002010BDF5
:101A2000341200203C9A0008014B00221A707047C3
:101A300034120020064BC0F3021253F8222000F0AB
:101A40000F00012301B9103083401361704700BFBC
:101A5000B89A00080022134670B58B4218DA1C1899
:101A60000F2C15DC0B4C0C4D0444E45CC4F3021643
:101A700055F8265004F00F04AE68012505FA04F469
:101A8000264214BF2C4600249C4022432B44E4E70A
:101A9000104670BD76120020B89A0008F8B5144BB5
:101AA000154603EBC00043689878F8B100291E780A
:101AB00010DA5F780024B44215DAE3190F2B12D83C
:101AC0000C4B01213B44A140185D2940FFF7B2FFB8
:101AD0000134F0E7B14208DA064A5B781144C85C89
:101AE0002946FFF7A7FF0120F8BD0020F8BD00BF81
:101AF0004812002076120020024B03EBC00043681E
:101B0000187870474812002010B50C4C04EBC00444
:101B100063689A78012A0FD058781978FFF79AFFEE
:101B2000638880B2834207D06080012061780246DA
:101B3000BDE81040FFF792BC10BD00BF4812002066
:101B400010B50B461449144601EBC000406882787A
:101B5000012A1FD0002B017805DA4078FFF77AFFC1
:101B60002060012010BD8B4214DA0C4942780B44EE
:101B70009B5C0B4AC3F3021152F8212001209268AA
:101B800003F00F0300FA03F31A4214BF03460023C5
:101B9000236010BD002010BD4812002076120020E6
:101BA000B89A000800220D49002321F812300132B2
:101BB000072AF8D10A49FF225A540133102BF9D1D0
:101BC000084B00201A70084B187058801872588102
:101BD0001874588218765883704700BF6812002026
:101BE0007612002086120020481200200F280BD801
:101BF000062909DC0F2A07DC02F00F02034B42EA38
:101C000001111954002070470148704776120020D6
:101C1000DEB1FFFF084B1B78FF2B0BD0C3F3021282
:101C2000012103F00F039940044B89B253F82200BD
:101C300001F09EBB704700BF86120020B89A0008D2
:101C4000062870B505460E4612DC0A4C34F81030F2
:101C50000B420DD123B9084B33F8200001F0CAFB29
:101C600034F81530012046EA030124F8151070BD40
:101C7000002070BD681200207C9A0008F8B51D464F
:101C8000074B0C46164653F82070FFF7D9FF30B1CA
:101C9000384631462A46234601F03AFA0120F8BD7B
:101CA000B89A0008062808B50DDC094A32F8103049
:101CB00023EA010122F8101039B9064B33F820004D
:101CC00001F0A5FB01E0002008BD012008BD00BF18
:101CD000681200207C9A00080628F8B52CDC0F2931
:101CE0002ADC01F00F0141EA0014E4B204F00F0312
:101CF000012606FA03F5C4F30217ADB238462946A9
:101D0000FFF79EFFD0B10E4B022153F827000022AF
:101D10002B4601F0FDF90B4B18781D46FF2808D023
:101D200000F00F0306FA03F1C0F3021089B2FFF7C7
:101D3000B9FF2C700020F8BD0348F8BD0348F8BD7A
:101D4000B89A000886120020DEB1FFFFDDB1FFFF68
:101D50002DE9F74F1378814688461546002B64D04D
:101D600052781344102B60DCAC78012C05D008D3DA
:101D7000022C5AD14FF0010B06E002244FF0000B69
:101D800002E000244FF0020B4FF0000A29788A4548
:101D90001FDA284F6B7807EB0A02D25CFF2A2AD0A1
:101DA000C2F30213012602F00F029640B6B21846A3
:101DB00031460193FFF744FF00B3019B1E4A2146C1
:101DC00052F823005A46334601F0A2F90AF1010AFB
:101DD000DCE71A4B03EBC904AB7884F80180012BD4
:101DE000656002D10020608020E06878FFF732FE55
:101DF000608000201AE044F6226401E044F6236487
:101E0000002656450FD06B78BA19D05CFF2808D051
:101E100000F00F0301219940C0F3021089B2FFF7CF
:101E200041FF0136EDE7604200E0054803B0BDE840
:101E3000F08F00BF76120020B89A000848120020E8
:101E4000DEB1FFFFF8B5104BC4001D461A195768E4
:101E500000263B789E4210DA0C4B7A783344985C2B
:101E6000FF2808D000F00F0301219940C0F30210B1
:101E700089B2FFF717FF0136EBE72C44FF236370AD
:101E800000236360F8BD00BF4812002076120020D6
:101E900010B50446FFF7D6FF024B002203F83420AA
:101EA00010BD00BF4812002003280DDC074B13F8BB
:101EB00030204AB9012103F8301003EBC003FF21A1
:101EC00059705A600248704700207047481200203D
:101ED000989A000808B501F015F90A4AFF280A4B3C
:101EE000CCBF4FF400614FF48061116080024FF469
:101EF00000521A6000F1FF60044B00F5FC201860EE
:101F000008BD00BF88120020901200208C12002013
:101F10002A4B10B50A69282404FB003300240C6105
:101F2000D40717D55C6804F5434450345C609C6862
:101F300004F5434450349C60DC6804F54344503459
:101F4000DC601C6904F5434450341C611C4C34F8BB
:101F50001000024090070AD5486B5C6804445C613D
:101F6000DC78404244F00104DC7098600BE05407D8
:101F700009D5886B9C6804449C61DC78404244F03D
:101F80000204DC70586010070AD5CA6BD968114486
:101F9000D961D978524241F00401D9701A6110BD5B
:101FA000D20609D50A6C196911441962D9785242CE
:101FB00041F00801D970DA6010BD00BFA412002002
:101FC00098120020394B30B5282404FB00330A69ED
:101FD00000245D6A0C61D40717D55C6804F543449E
:101FE00050345C609C6804F5434450349C60DC6869
:101FF00004F543445034DC601C6904F54344503418
:102000001C612B4C34F810000240900711D5586821
:102010004C6B0444142060432C88A04209D9486BBF
:1020200040425860586901305861987840F001008A
:102030009870540711D598688C6B04441420604341
:102040002C88A04209D9886B404298609869013079
:102050009861987840F002009870100711D5D86800
:10206000CC6B0444142060432C88A04209D9C86B6F
:102070004042D860D8690130D861987840F00400B7
:102080009870D20611D51A69086C10441422424384
:102090002888824209D90A6C52421A611A6A0132AE
:1020A0001A629A7842F008029A7030BDA412002099
:1020B0009812002007490A7842FA00F3DB075FBF55
:1020C000012303FA00F002430A7054BF18460020AF
:1020D000704700BFA0120020054901230A78834001
:1020E00022EA03030B70034B00221A54704700BF0F
:1020F000A01200209412002070B514460023A51AE7
:102100008D4207D214F8016B032E06D80125B54085
:102110002B43F4E70360002070BD014870BD00BF91
:10212000DEB1FFFF10B50024846111F00103C4612A
:102130001FBF836943F068038361446318BF0323AF
:102140008C0741BF846943F0300344F4D044846178
:1021500044BF002484634C0741BFC46943F4407307
:1021600044F06804C46144BF0024C463090741BF4C
:10217000C16943F4405341F4D041C16144BF0021DF
:102180000164012A04BF23F4085323F022030362ED
:102190000023036010BD0000084B53F820300329D2
:1021A0000AD8DFE801F0020406085A6370479A6310
:1021B0007047DA6370471A64704700BF549B000889
:1021C000074B53F82030C80748BF5A63880748BFF9
:1021D0009A63480748BFDA63090748BF1A64704723
:1021E000549B000873B50B461B49B2F57A7F01EB8F
:1021F000C0014E680546348811D80134A4B2B4F544
:102200007A7F28BF4FF47A7432214C43C2F57A7238
:10221000013C54434FF47A72B4FBF2F400E0002422
:10222000002BF1780ADA01A8321DFFF765FF78B9B3
:10223000284601992246FFF7C3FF07E08B4207DAE1
:102240003344284619792246FFF7A6FF012000E013
:10225000002002B070BD00BFA4120020024B03EBAF
:10226000C0004368D8787047A41200201F4BF7B510
:1022700003EBC0035F681E4B064653F820402368FB
:10228000DB072FD40A25B2FBF5F52DB14CF2503304
:102290009D4228BF1D4600E0012500297B780BDA0E
:1022A00001A81946BA1CFFF727FFD8B93046019993
:1022B0000122FFF785FF07E0994213DA39443046DF
:1022C00089780122FFF768FF4FF43473A362013568
:1022D00000230120E56263626061236843F08903A3
:1022E000236000E0002003B0F0BD00BFA412002076
:1022F000549B0008024B03EBC000436858787047BA
:10230000A412002010B50D4C282303FB0040002927
:10231000436A01DA43780CE05C78A1420CDA194494
:102320008B78012B8CBF1823102318444168142389
:102330004B431360012010BD002010BDA4120020EB
:10234000034A282303FB0020436A5878704700BFE4
:10235000A412002010B50A4C282303FB00400029DA
:10236000436A01DA437805E0DB78994205DA00EB4D
:10237000810043691360012010BD002010BD00BF23
:10238000A4120020034A282303FB0020436AD878C4
:10239000704700BFA41200202DE9F0410746164601
:1023A0001D46032849D8DFE800F0020C2F39002031
:1023B00089B22B46FFF762FC00283ED04FF46070D4
:1023C00034E04FEA811818F0C008C1F3810401D14C
:1023D00044B916E0002041462B46FFF74FFC002889
:1023E000F6D12AE02146012032462B46FFF746FC73
:1023F000044630B941460120FFF754FC2046BDE8B1
:10240000F08140F2813011E0890189B201202B4630
:10241000FFF734FC88B140F2823007E0002089B237
:102420002B46FFF72BFC40B140F2833000F0E2FF77
:10243000034B53F82700BDE8F0810020BDE8F08190
:10244000549B00082DE9F743064689461446517807
:1024500001A80232FFF750FE054698B930460199AF
:1024600001220223FFF798FF58B1084F019907EBAB
:10247000C6082278FFF756FE07F83690C8F80440E1
:1024800000E0034D284603B0BDE8F083A41200200D
:10249000DDB1FFFF70B506461E4B0C4653F82050C9
:1024A0001D4B13F8200001F0E3FC032E2BD8DFE8CE
:1024B00006F002091A220020A1B2FFF7F3FB4FF445
:1024C00060701EE0A10111F0C001C4F3810402D0CC
:1024D0000020FFF7E7FB1CB101202146FFF7E2FBDC
:1024E00040F281300DE0A10189B20120FFF7DAFB53
:1024F00040F2823005E00020A1B2FFF7D3FB40F2AA
:10250000833000F084FF0023EB602B626B602B6054
:1025100070BD00BF549B0008649B000873B50B4E50
:10252000044606EBC0056A6801A8D1780432FFF7BB
:10253000E3FD18B920460199FFF7ACFFFF2306F829
:10254000343000236B6002B070BD00BFA4120020C5
:1025500073B50B4E044606EBC0056A6801A85178B6
:102560000232FFF7C9FD18B920460199FFF792FF23
:10257000FF2306F8343000236B6002B070BD00BF4B
:10258000A4120020F7B5282444430A4E0746351903
:102590006A6A01A851780232FFF7AEFD18B93846D1
:1025A0000199FFF777FFFF23335500236B6203B0D8
:1025B000F0BD00BFA4120020F7B5282444430A4E02
:1025C000074635196A6A01A8D1780432FFF794FDED
:1025D00018B938460199FFF75DFFFF2333550023F3
:1025E0006B6203B0F0BD00BFA412002001460120C1
:1025F0000246FEF733BF0000282370B55843204D34
:102600002B18DA78002A3AD05E6A12F0030F347879
:1026100015D012F0010103D0211C18BF012104E0E4
:10262000012C1EBF99695961012122F00302DA7061
:1026300029B37278012A1BD99A78CAB916E002F038
:10264000040202F0FF011AB1221C18BF012205E0AA
:10265000012C0FBF0A461A6ADA6101220021D970E3
:102660006AB17278012A03D99A780AB1012200E08E
:1026700000225A70285CBDE87040FFF7B7BF70BDFC
:10268000A41200202823F0B558430F4E3418A37825
:10269000C3B1616A002211F8037FBA4212DA11F85D
:1026A00001EF012505FA0EF52B42AE4608D023EACC
:1026B0000E03A3706270305CBDE8F040FFF796BF78
:1026C0000132EAE7F0BD00BFA41200202DE9F34774
:1026D00028264643DFF81C81002308EB0604E3703C
:1026E00063616360A361A360924652780746012A42
:1026F000894604D99AF80320012A88BF0123A370D0
:1027000001A89AF801100AF10202FFF7F5FC05464C
:10271000002860D1019901F00303032B5AD001F086
:102720000C030C2B56D038462A460123FFF734FE03
:1027300000284DD02A4B08F80690C4F824A053F87E
:1027400027404FF4B463019A2560A3624CF25033E2
:10275000E36201236361234B900723F8175025623E
:102760000CD0D1074CBF40F2312143F202110626B2
:10277000A1614FF0310823F8176002E02E46A84609
:10278000A56112F00C0111D052074CBF40F231226A
:1027900043F20212E26133F8172048F4445842F041
:1027A000180246F0180623F8172000E0E1610E4BEE
:1027B00046F0010613F8270001F04EFB00232361C9
:1027C000E660C4F82080236843F00103236002E040
:1027D000064D00E0064D284602B0BDE8F08700BF78
:1027E000549B000898120020649B0008DDB1FFFF95
:1027F000DEB1FFFFA41200202DE9F04F2827474348
:10280000DFF83091002309EB070585B0AB706B61F1
:102810006B60AB61AB60EB61EB602B622B610646DA
:102820008A469046D17803A80432FFF765FC8346B8
:10283000002876D16B6A039C019330460123214620
:102840005A46FFF7A9FD0346002868D0E207C0F802
:1028500018B0C0F81CB048BF8269344942BF42F08A
:1028600031028261022221F816B052BF5A4621F885
:1028700016200322A0070BD5986942F0300240F4DD
:102880004450986131F8160040F0040021F8160019
:1028900060070BD5D86942F4407240F03100D8612E
:1028A00031F8160040F0080021F8160020070BD57B
:1028B000D86942F4405240F44450D86131F81600CF
:1028C00040F0100021F81600019904F00F048978F7
:1028D000640001291CBF22F4085222F022021A626D
:1028E0004FF4B461002244F00104DC601A605A62C3
:1028F00099624CF25031D962012159611A610C4A36
:10290000019312F8260001F0A7FA019B1A6842F021
:1029100081021A6009F807A0C5F8248001E0DFF8F9
:1029200018B0584605B0BDE8F08F00BF98120020DF
:10293000649B0008A4120020DDB1FFFF2DE9F347DE
:10294000074688461546D17801A80432FFF7D4FB24
:10295000064658BB3846019901220223FFF71CFDA9
:10296000044610B3AA780199FFF7DCFB4FF4B46377
:10297000A3622B88322201339BB2B3F57A7F28BF42
:102980004FF47A735343013BE36201236662636150
:102990002368DFF8249043F0810309EBC70A236022
:1029A00009F83780CAF8045000E0024E304602B001
:1029B000BDE8F087DDB1FFFFA41200201A4B30B54F
:1029C00003EBC0035D6800292C882BDBEB78994270
:1029D00028DA2944154B097953F8203003290BD8FC
:1029E000DFE801F0020406085B6B06E09B6B04E085
:1029F000DB6B02E01B6C00E000230134A4B2B4F5F1
:102A00007A7F4FF47A7101FB03F128BF4FF47A7497
:102A100032236343013BB1FBF3F3C3F57A731360D5
:102A2000012030BD002030BDA4120020549B0008BE
:102A3000054B187820B100204FF08041FFF768BAAD
:102A40004FF08041FFF7BEBA94120020044B0120E2
:102A50005B7804490BB1FFF75BBAFFF7B3BA00BF6D
:102A60009412002000040040044B02209B7804498B
:102A70000BB1FFF74DBAFFF7A5BA00BF94120020C3
:102A800000080040044B0320DB7804490BB1FFF73A
:102A90003FBAFFF797BA00BF94120020000C004025
:102AA000032810B5044601DD002010BDFFF702FB2E
:102AB0000028F9D0044BFF2103EBC40203F83410C3
:102AC00000235360014810BDA4120020D49A0008CE
:102AD000032810B5044601DD002010BDFFF7EAFA17
:102AE0000028F9D0044BFF2103EBC40203F8341093
:102AF00000235360014810BDA4120020149B00085D
:102B0000032810B5044601DD002010BDFFF7D2FAFE
:102B10000028F9D028206043054B01221A55054BA7
:102B2000FF211A18195400235362034810BD00BF37
:102B300094120020A4120020F49A0008032810B573
:102B4000044601DD002010BDFFF7B4FA0028F9D0DB
:102B500028206043044A00231355044AFF24111817
:102B600014544B62024810BD94120020A41200209D
:102B7000349B0008014B00221A707047A0120020FD
:102B8000044A142303FB0020FF2343700023036146
:102B9000704700BF44130020F8B514244443074E87
:102BA000FF23351900276B7068682F61FEF730F836
:102BB000A868FEF72DF83755F8BD00BF4413002074
:102BC000034A142303FB00204068FEF742B800BF0D
:102BD0004413002010B5044C142303FB0040BDE84F
:102BE00010408068FEF785B84413002010B5044CEF
:102BF000142303FB0040BDE810404068FEF752B8C4
:102C0000441300202DE9F74F537906468A46904633
:102C1000032B35D8DFE803F00B0205084FF400570B
:102C200006E04FF4805703E04FF4405700E00027E0
:102C300098F80420082A23D1012B05D007D3022BB2
:102C40001ED14FF4806904E04FF4C06901E04FF0F9
:102C50000009042E7FD8DFE806F01A16030B660081
:102C600001204FF480644FF40065DFF804B115E0F3
:102C700002204FF480644FF40065DFF8F8B00DE0F7
:102C800044F6226069E000200424082504E00020C6
:102C90004FF400744FF48065DFF8DCB045EA0401BE
:102CA000FEF7CEFF002856D0DC46234658460321C7
:102CB0000222CDF804C000F02BFADDF804C0022295
:102CC000604600212B4600F023FA264B33F82600FD
:102CD00000F090FB244BD8F8001053F82640204613
:102CE00000F04EFB2046082100F05EFB20463946EE
:102CF00000F063FB2046494600F065FB20460C21AE
:102D000000F067FB2046002100F069FB204600F040
:102D10006CFB164A142303FB0626002086F801A04C
:102D2000C6F8108019E003200421FEF789FF90B156
:102D300002204FF48051FEF783FF20B904210320C5
:102D4000FEF7B0FF07E0DFF834C0DFF828B04FF43B
:102D500080540425A9E744F62360404203B0BDE84F
:102D6000F08F00BFA89B0008949B0008441300202C
:102D7000000C014000100140000801400014014017
:102D80002C4BF7B553F82040054623682A4E13F024
:102D9000200F1CD0142707FB056761687868C9B24B
:102DA000FDF759FF024620B979780120FEF756FB5E
:102DB00005E0224B1B68FB6023689906EAD41427C0
:102DC00007FB05677868FDF73EFF90B10CE014271C
:102DD00007FB00677868FDF731FF50B9174BFA68B9
:102DE0001B689B1A0A2B04D9012079780246FEF74A
:102DF00035FB23681A061BD5142303FB056398686B
:102E0000FDF71CFFA0B9142707FB05670DF10701AB
:102E1000B868FDF732FF30B19DF807306360236872
:102E20001B06F0D404E0012079780222FEF716FB9D
:102E300003B0F0BD949B000844130020281200202A
:102E400004282DE9F84302DD0020BDE8F8831423AF
:102E500003FB00F5DFF8448018F8059008EB050641
:102E6000B9F1000FF0D1FDF7A9FE07460028EBD01D
:102E7000FDF7A4FE18B93846FDF7CAFEE4E70123C2
:102E800008F80530FF237370B0607760C6F81090C3
:102E90000148BDE8F88300BF749B0008441300207C
:102EA000054B00221A701A7583F8282083F83C20FD
:102EB00083F85020704700BF441300204878202832
:102EC00004D0A0F1220358425841704718880628C0
:102ED00094BF002001207047024B1B6803B11847C4
:102EE000704700BF3014002013B504460F4B01217A
:102EF00000930222402300F0D3FA0D4B20460093AA
:102F000082210222402300F0CBFA002300932046C6
:102F100083210322102300F0C3FA2046054B212110
:102F20007F2202B0BDE8104000F0A5BB392F000899
:102F3000D92E0008BD2E000800B591B001216A46C7
:102F4000402300F0D7FA014620B1044B1B680BB1B7
:102F50006846984711B05DF804FB00BF2C140020B0
:102F60001FB503230093094B094901938023029362
:102F7000084A094B094800F063FA094B09491860EF
:102F800005B05DF804EB00F03FBE00BFAC130020BD
:102F9000BC9B0008EC9B000814000020D49C000897
:102FA000A8130020E92E0008054B10B5186800F0A2
:102FB00073FA044B1B6813B1BDE81040184710BDED
:102FC000A8130020301400208368DB075EBF8368ED
:102FD00043F00103836070478368DB0742BF836867
:102FE00043F0010383607047836823F48013836098
:102FF0007047836800F1080243F008038360136898
:103000001B07FCD47047836843F004038360704758
:103010008068C0F38000704710B50446FFF7F3FFE7
:103020002046FFF7F5FF0028FAD110BD0022134615
:1030300010B501FA02F403321E2A43EA0403F8D160
:103040000361002201FA02F40332182A43EA04035E
:10305000F8D1C36010BD836823F00103836070471B
:10306000436823F4807343607047836823F40063EC
:10307000836070470068C0F340007047C06C7047C1
:10308000836823F00203836070471029F0B537D8B6
:10309000002426462746254601238B422AD8062BA4
:1030A00098BF92F800E002F101029CBF0EFA04FE04
:1030B00046EA0E06A3F1070EBEF1050F9FBF12F8F8
:1030C00001ECA4F11E0C0EFA0CFE47EA0E07A3F168
:1030D0000D0EBEF1050F9EBF12F801ECA4F13C0CE1
:1030E0000EFA0CFE03F1010398BF45EA0E05DBB2B0
:1030F0000534D2E7013945EA0155C56207634663E5
:10310000F0BD0000014B188880B27047E0F7FF1F48
:103110002DE9F0414FF6E07796469C4602684368F9
:1031200000254CFA05F4E4071BD5072DACB28BBF84
:103130003C4616461E46A40098BFA4B24FF00F08A6
:1031400008FA04F826EA080604F102080EFA08F85C
:1031500001FA04F448EA04043443082D2CBF234642
:10316000224601350437102DBFB2DAD10260436028
:10317000BDE8F081024A136843F080731360704722
:1031800000100240062822D8DFE800F004090E13E0
:10319000181A1C000F4B1868C0F3406070470D4BA5
:1031A0001868C0F3C06070470A4B1868C0F34070DD
:1031B0007047084B1868C0F340407047054B02E069
:1031C000054B00E0054B1868C0F340007047002035
:1031D000704700BF0010024020100240241002403F
:1031E00010B504462046FFF7CDFF0028FAD010BDE9
:1031F00006281FD8DFE800F004060B101517190089
:10320000FFF7B8BF0C4A136843F0806311E00A4A25
:10321000136843F080530CE0074A136843F480338B
:1032200007E0054A02E0054A00E0054A136843F05A
:1032300001031360704700BF0010024020100240DD
:1032400024100240034A136823F00303184310605C
:10325000704700BF04100240034A136823F4701340
:1032600043EA80401060704704100240034A13682C
:1032700023F4803343EA004010607047041002409A
:10328000034A136823F4003343EA40401060704758
:1032900004100240034A136823F4404343EA803099
:1032A0001060704704100240034A136823F460530F
:1032B00043EAC0201060704704100240034A1368BC
:1032C00023F4E06343EA00201060704704100240DA
:1032D000034A136823F0F00343EA001010607047BC
:1032E0000410024008B50420FFF782FF0420FFF716
:1032F00077FF0020FFF7A6FF0320FFF779FF0320E9
:10330000FFF76EFF0120FFF79DFF0020FFF7E0FFB2
:103310000320FFF7BFFF0420FFF7D0FF0020FFF7D7
:10332000C3FF022000F082F80720FFF795FF01207D
:10333000FFF79CFF0020FFF7A3FFFFF71BFF002014
:10334000FFF74EFF0220FFF77DFF044B044A0549BB
:103350001360054A1160054A136008BD00A24A04C3
:103360002000002000512502240000202800002019
:10337000C26821EA0203114043EA0141016170473A
:10338000064A074B90421B6804BF064B1B6801EBC3
:1033900043034900B3FBF1F38360704700380140F9
:1033A0002400002028000020C36808290CBF23F453
:1033B000805343F48053C3607047036923F4405340
:1033C000194301617047C36823F4C0631943C160A6
:1033D0007047C36823F00C031943C1607047436909
:1033E00023F44073194341617047C36843F40053A9
:1033F000C3607047430903F1804303F50433196840
:1034000000F01F00012282400A431A6070474309FE
:1034100003F1804303F50433196800F01F00012213
:10342000824021EA02021A6070470000034A1368D2
:1034300023F0070318431060704700BF00200240CC
:103440002DE9F0411E460368054688461746984711
:10345000069BC0F8DC50C360079BC0F80080036186
:10346000BDF8203047608382084B86600367084BB5
:10347000C366084B83660023C0F8C830C0F8CC3060
:10348000C0F8D030C0F8D430BDE8F0819D360008D7
:10349000F73600087D370008D0F8DC305B6A184743
:1034A00010B5D0F8DC40A468A446BDE810406047E1
:1034B00037B50446002503688575C575DB7929464F
:1034C0002A460095FFF7ECFFD4F8DC3020465B6815
:1034D00029469847E3691BB103B0BDE8304018475F
:1034E00003B030BD10B5D0F8DC40E469A446BDE8B7
:1034F0001040604710B5D0F8DC40246AA446BDE80F
:1035000010406047D0F8DC301B691847D0F8DC3039
:103510009B69184710B5044600210122FFF7F2FF0E
:10352000002384F82C3010BD38B50368828FC58E17
:10353000DB79AD1A9D42A8BF1D46836BADB21A441C
:1035400000212B460446FFF7D5FFA84205D02046B0
:10355000FFF7E0FF4FF0FF3038BDA38F0344A38790
:1035600038BD38B503680446DD79838F00219D425C
:10357000826B0FD22B46FFF7B5FF0223226884F837
:103580002C30D379A16B0B44A363D279A38F9B1A00
:10359000A38738BDFFF7A6FF94F84430002B14BF73
:1035A0000223032384F82C30002384F84430A387BB
:1035B000A36338BD2DE9F34104460E4600F14805EA
:1035C00000F168082F6857B92046314604F13802E7
:1035D00004F13C0302B0BDE8F04100F065BB69793D
:1035E00033782A790B409A420BD104F140030093BF
:1035F0002046314604F1380204F13C03B847012863
:1036000003D908354545DDD1DEE702B0BDE8F081DC
:1036100038B50369044683638B79CA790D4643EA5A
:1036200002238387FFF7C6FF00B3E988A9B1A38F00
:1036300022688B42D07908D243B193FBF0F200FBB1
:103640001233B3FA83F35B0900E0002384F84430BB
:103650002046BDE83840FFF784BF0B4620460A46A7
:10366000FFF740FF042384F82C3038BD2046BDE826
:103670003840FFF74FBF70B5002600EBC605AC6CB5
:103680002CB10136042EF8D14FF0FF3070BD85F813
:103690004C1085F84D20AB64204670BD70B500F12C
:1036A0003006002505642946324608230446FFF704
:1036B00021FF082804D02046BDE87040FFF72ABF4C
:1036C000E38E1BB194F93020002A05DA20463146FA
:1036D000BDE87040FFF79CBFA28A9A42EBD32269F3
:1036E000A587A2632268D2799A4234BF05230623B4
:1036F00084F82C3070BD90F82C3010B5062B0446A1
:1037000010D0072B24D0052B33D1FFF70DFF002855
:1037100033DBA28FE38E9B1A2268D27993422CDC92
:10372000062310E0FFF700FF002826DB204604F107
:103730003001FFF73FFF48B100210B4620460A4603
:10374000FFF7D0FE042384F82C3010BD204610E093
:1037500000210B460A46FFF7CDFE002384F82C30EB
:10376000236C1BB1204604F13001984700232364E9
:1037700010BDBDE81040FFF7CDBE10BD90F82C3055
:1037800010B5032B044607D0042B07D0022B1CD105
:10379000BDE81040FFF7E5BE072313E0036C13B14B
:1037A00000F13001984794F8303053B994F8313033
:1037B000052B06D1D4F8DC30618E5B682046C9B297
:1037C0009847002384F82C3010BDBDE81040FFF767
:1037D000A1BEF8B50D464988044679B10368587C06
:1037E0000023834208D266680D2202FB03625279ED
:1037F0008A4205D00133F4E70020F8BD4FF0FF33D3
:103800000133DBB2E37543B9D4F8DC302046DB6822
:103810009847D4F8C83093B922E00D225343626828
:103820000D3B1344002219798A42EDD2D3F80910D6
:103830001001415809B1002008700132F3E700235C
:10384000A3642365A365236604F1C40604F1D407C9
:1038500056F8043F13B1204669889847BE42F7D115
:103860000120F8BD19881268012984BF012119803F
:10387000C37D2BB141680D2000FB031313F8083CF6
:1038800013700120704730B5C57D0D246C4340682E
:103890000D3C20448D880479A5420CD201241C8063
:1038A0008B88D0F809001B011B58126803B11B78E4
:1038B0001370012030BD002030BD1988012002297D
:1038C00084BF02211980116800230B7012685370A5
:1038D000704719880120022984BF022119801168CC
:1038E00000230B7012685370704738B514461A885D
:1038F0002568022A84BF02221A808988C9B2FFF78C
:1039000005FE003018BF01202870236800225A707D
:10391000012038BD08B589880122C9B2FFF7F2FD40
:10392000012008BD08B589880022C9B2FFF7EAFD69
:10393000012008BD10B50B786BB94C887F2C0AD8D4
:10394000D0F8DC30847593F8302032B149885B6858
:10395000C9B2984701E0002010BD012010BD70B52C
:103960001D46C37D0D225A4343680D3A1A440C4646
:10397000137989888B4216D9D2F809600A01B118E7
:103980006388097999420ED9B2580AB1137000E0E0
:103990004BB9D0F8D83013B1A1886288984700237A
:1039A0002B80012070BD002070BD2DE9F04F054631
:1039B000488889B0C6B2000A022890461F460FD038
:1039C000032800F0E180012840F01A812B68136081
:1039D0002B683A881B78934228BF13463B8010E13E
:1039E0002B693C88136001930D235E43D5F8048056
:1039F000019818F8065008EB0603A54228BF254693
:103A000019462A46029300F0EBFC019B641B18F850
:103A100006602B44A4B200220492029A1179BDF8E8
:103A20001020914240F2AC8012010692029A06994F
:103A3000D2F809200A44D2F80890B9F1000F14D046
:103A400099F800801846A04528BFA046494642463E
:103A500000F0C6FC034699F80020C8EB0404454476
:103A600016444344A4B2ADB2B6B200220392029A05
:103A7000D2F80910069A11440879BDF80C2090423A
:103A80007BD94FF0150909FB02F9D1F80CB01846A3
:103A90001BF809800BEB090AA04528BFA046514638
:103AA000424600F09DFC03461BF80920DAF80D1091
:103AB000C8EB0404454416444344A4B2ADB2B6B2C4
:103AC000A9B1DAF811801846A045A8BFA0461FFA90
:103AD00088F8424600F084FC0346DAF81120C8EB6F
:103AE0000404454416444344A4B2ADB2B6B2002225
:103AF0000592BDF814909AF804204A453AD9DAF8AC
:103B000009C0C9EB09191CF809800CEB090BA04589
:103B100028BFA046184659464246CDF81CC000F0C2
:103B20005FFC0346DDF81CC0DBF807101CF8092019
:103B3000C8EB0404454416444344A4B2ADB2B6B243
:103B4000A9B1DBF80B801846A045A8BFA0461FFA14
:103B500088F8424600F044FC0346DBF80B20C8EB33
:103B60000404454416444344A4B2ADB2B6B2059A27
:103B70000132BDE7039A013278E7049A01324BE73C
:103B8000019B5E803D8039E02C6956B90923A37002
:103B90000423E37023703B88042B28BF04233B805D
:103BA00028E0A868013E60B3EB689E4228DA40F244
:103BB00009438A889A4223D150F8260000F0FEFD7E
:103BC00001304000C0B220703B884FEA860998421D
:103BD00028BF1846002238803B885B08013B9A4288
:103BE00008DAAB6853F80930995C04EB420359805A
:103BF0000132F1E703236370C8F80040012000E0C0
:103C0000002009B0BDE8F08F10B5002300F1C40416
:103C100054F8042F2AB10133042BF9D14FF0FF30AF
:103C200010BD323340F82310104610BD30B54C782B
:103C3000092C07D8044D55F824401CB1A446BDE812
:103C400030406047002030BD7C9C000830B54C7887
:103C50000B2C07D8044D55F824401CB1A446BDE8F0
:103C600030406047002030BDA49C000810B54C785F
:103C7000012C03D00AD3032C04D00CE04C8854B997
:103C8000064C04E04C8834B9054C00E0054CA446D1
:103C9000BDE810406047002010BD00BF2539000876
:103CA00015390008EB38000810B50C7814F0600FD7
:103CB00012D104F01F04012C0AD005D3022C0BD121
:103CC000BDE81040FFF7D2BFBDE81040FFF7AEBF20
:103CD000BDE81040FFF7BABF002010BD08B540F2A4
:103CE0009730FFF787FB064A0649002313600B60F5
:103CF00041F80C3C4FF41C431360034808BD00BF5F
:103D0000405C0040505C00403C1400200132C2F393
:103D10004F0232B131F8023B013A036092B20430F3
:103D2000F7E77047F0B502F0010652080D46044669
:103D3000134633B135F8047B013B24F8027B9BB278
:103D4000F7E71EB111F8223000F81230F0BDFEE79F
:103D5000704700000022184918485318834204D2C3
:103D6000174BD35853500432F5E7164A934203D207
:103D700000221A600433F8E7134A144C136843F422
:103D800000731360124B9C4203D254F8043B9847D3
:103D9000F8E7104C104B9C4203D254F8043B984770
:103DA000F8E7FCF7AFFD0D4C0D4B9C4203D254F8E5
:103DB000043B9847F8E700BF00000020A40800205B
:103DC000A09F00087415002014ED00E0989F0008E3
:103DD000989F0008989F0008989F0008989F0008E7
:103DE000989F0008044A00F00400136823F00403BD
:103DF00003431360704700BF10E000E010B5B1FB53
:103E0000F0F40A4B9C420ED8094B9C4286BFE40852
:103E100000200420FFF7E6FF013C064B24F07F441E
:103E20001C60012010BD002010BD00BFF7FFFF0780
:103E3000FEFFFF0014E000E0024A136843F00203B3
:103E40001360704710E000E0024A136843F001037A
:103E50001360704710E000E043099B0003F16043EA
:103E600000F01F00012203F5614382401A60704791
:103E70004109012300F01F00024A834042F821302B
:103E8000704700BF80E100E0024B41F08001196003
:103E9000704700BF4C5C00403E2A0C4B4FEAC1010A
:103EA00008D9D00618BF203A6FEA82521B686FEA21
:103EB000524204E0D00748BF01321B6892029BB215
:103EC0001944034B92B249005A507047505C00406D
:103ED0000C6000402DE9F3410F461E466B464349F6
:103EE00027F07F0C07F07F07BC00054604F18044F3
:103EF0000868496804F5B84403C3236802A923F499
:103F0000E04323F07F033B439BB22360236801EB34
:103F1000420223F4EC4332F8082C23F070031343DD
:103F20009BB2DDF8208023600CF0FF0E3049F800D2
:103F3000BCF1000F15D1A7B10B682A8B9BB21844B6
:103F40002C4B40001A50394628463246FFF7A4FF52
:103F5000B8F1000F31D00C2303FB0757C7F86C8072
:103F60002BE00A682B8B92B20244520002F180428D
:103F700002F5C0421360B8F1000F04D00C2202FB1E
:103F80000752C2F8688048F6CF72D4F800C03344B4
:103F90000CEA02022260226822F4E04222F040028F
:103FA00092B282F0200242F4004242F0800222608B
:103FB0002B83BEF1000F15D1BEE74CF68F7322683C
:103FC0001340236022682B8B22F4804222F070027F
:103FD00092B282F4405242F4004242F080021E4407
:103FE00022602E8302B0BDE8F08100BF089D00086A
:103FF000505C0040086000400E4A40F63F73116874
:104000000B4043F4004343F08003136043F60F7307
:1040100011680B4043F4004343F0800342F8043B33
:10402000054B9A42E9D10368DB7920335B000383B7
:10403000704700BF045C0040205C004010B589B9A7
:104040002948002A036818BF102423F4E04323F012
:1040500040039BB208BF2024634043F4004343F075
:10406000800303600B061DD501F07F01890001F17B
:10407000804101F5B8410B68002A23F4E04323F0A6
:1040800040039BB214BF1022202283EA020343F4B0
:10409000004343F080030B6025D148F6CF730A68D4
:1040A00013401FE0890042B94CF68F7001F1804344
:1040B00003F5B8431C682040186001F1804101F508
:1040C000B8410B68002A23F4804323F070039BB2AD
:1040D00014BF4FF480524FF44052534043F4004316
:1040E00043F080030B6010BD005C00400B060BD555
:1040F00001F07F01890001F1804101F5B8410868B4
:1041000000F03000102809E0890001F1804101F53C
:10411000B841086800F44050B0F5805F14BF00203B
:10412000012070470B0617D40C4B5A54890001F13B
:10413000804101F5B8410B6823F4804323F07003FC
:104140009BB212B183F4005301E083F4405343F473
:10415000004343F080030B60704700BF341400201D
:1041600001F07F012DE9F0418D0005F1804505F555
:10417000B8451E462B6803F03003302B2DD0DFF8F6
:104180006480CF00D8F800401146A4B23C446400DB
:1041900004F1804404F5C0442068324680B24000F7
:1041A00000F1804000F5C040FFF7B0FDD8F80010E6
:1041B0000B4B89B2394449005E502A68304622F4DC
:1041C000E04222F0400292B282F0300242F4004219
:1041D00042F080022A60BDE8F0810020BDE8F08155
:1041E00004600040505C0040F8B58D0005F180454A
:1041F00005F5B8451C462B680E4603F44053B3F54D
:10420000405F3ED0214BF7001968214889B23944FC
:10421000490041589E46C1F30901A14208DA1968D4
:1042200003F56F7389B2394449005C58C4F309043B
:10423000DEF8003017499BB23B445B00C95810467A
:1042400089B2490001F18041224601F5C041FFF7E2
:1042500069FD40F60F732A68134043F080032B601A
:104260000D4B9B5D7BB92A6822F4804222F07002DC
:1042700092B282F4405242F4004242F080022A603C
:1042800001E00020F8BD2046F8BD00BF505C0040B2
:104290000C6000400860004034140020F8B5354B35
:1042A000054619681C468EB216F4806F08D04FF68A
:1042B000FF321A6040230383BDE8F840FFF7F8B8E7
:1042C000080433D501F00F0116F010024FEA810304
:1042D0000AD003F1804202F5B842126812F4006F6E
:1042E00014BF022201220CE040F60F7003F1804758
:1042F00007F5B847D7F800E00EEA000040F40040A8
:10430000386001EB410002441A3255F8222012B104
:10431000284690470AE040F60F7203F1804303F508
:10432000B84319680A4042F080021A60310505D589
:104330004FF2FF7323602B6A03B19847F20405D54F
:104340004EF6FF7323606B6A03B19847B30505D53A
:104350004FF6FF532360AB6A03B19847AA6A064B36
:104360001AB11A6842F4007202E01A6822F400726C
:104370001A60F8BD445C0040405C0040032A70B401
:1043800026D940EA01039B0711D004780D78AC428E
:1043900022D10244431C05E013F8014B11F8015FE0
:1043A000AC4219D19342F7D1002070BC70470C4643
:1043B00003461E6825681846AE42214603F10403F1
:1043C00004F1040404D1043A032A18462146F0D823
:1043D000002ADAD11046E8E7601B70BC704700BFC6
:1043E000844641EA000313F0030349D1403A23D342
:1043F0000B6803604B6843608B688360CB68C36065
:104400000B6903614B6943618B698361CB69C3614C
:104410000B6A03624B6A43628B6A8362CB6AC36234
:104420000B6B03634B6B43638B6B8363CB6BC3631C
:1044300040304031403ADBD230320BD30B6803605E
:104440004B6843608B688360CB68C3601030103169
:10445000103AF3D20C3205D351F8043B40F8043B38
:10446000043AF9D2043208D0D2071CBF11F8013B3C
:1044700000F8013B01D30B8803806046704700BF02
:10448000082A13D38B07B1D010F00303AED0C3F1C9
:104490000403D21ADB071CBF11F8013B00F8013BF3
:1044A000A4D331F8023B20F8023B9FE7043AD9D36A
:1044B000013A11F8013B00F8013BF9D20B78037087
:1044C0004B7843708B7883706046704770B4840774
:1044D00046D0541E002A41D0CDB2034602E0621EEF
:1044E000E4B3144603F8015B9A07F8D1032C2ED9E4
:1044F000CDB245EA05250F2C45EA054519D92646D2
:1045000003F11002103E0F2E42F8105C42F80C5CD2
:1045100042F8085C42F8045C02F11002F2D8A4F1FF
:10452000100222F00F0204F00F041032032C134487
:104530000DD91E462246043A032A46F8045BFAD8EF
:10454000221F22F003020432134404F003042CB1AE
:10455000C9B21C4403F8011BA342FBD170BC7047D5
:1045600014460346C2E700BF0CB4F0B5234B002944
:104570009DB01D683CDB4FF402730C460290069020
:10458000ADF814304FF6FF7723AE15D04C1E229AAB
:104590003346284602A904940794ADF81670019694
:1045A00000F056FC421C20DB029B00221A701DB05A
:1045B000BDE8F04002B070473346284602A9229A6F
:1045C00004940794ADF81670019600F041FC431C6A
:1045D00004DB1DB0BDE8F04002B070478B232B60B8
:1045E0001DB0BDE8F04002B070478B232B60DBE7C5
:1045F0008B232B604FF0FF30EBE700BF5804002007
:1046000080EA010C1CF0030F37D110F0030C20F0EE
:10461000030021F0030150F8042B08BF51F8043BBC
:104620000ED08CF0030C6FF07F434FEACC0C23FAD2
:104630000CFC51F8043B42EA0C0243EA0C0300BFB5
:10464000A2F1013C9A4201BF2CEA020C1CF0803F0F
:1046500050F8042B51F8043BF2D04FEA02604FEAC5
:104660001222012828BFB0EB036F08BF1B0AF4D049
:1046700003F0FF03000EC01A704710F0030F0AD0BA
:1046800010F8012B11F8013B012A28BF9A42F4D0FF
:10469000A2EB030070474DF8045D50F8042B01F0C5
:1046A000030521F0030151F8043B022D26D04DD81B
:1046B00022F07F45B5EB132FA2F1013C2CEA020C4E
:1046C0000DD11CF0803C08BF51F8043B0AD185EAAB
:1046D0000205B5EB036F0CD150F8042BE8E74FEA65
:1046E00013235BE03CF07F4C54D10B784FEA12650A
:1046F00054E04FEA126503F0FF034FE04FEA024532
:10470000A2F1013C4FEA15452CEA020CB5EB134F20
:1047100018D11CF0803C08BF51F8043B07D185EA52
:104720000205B5EB034F09D150F8042BE6E75FEA29
:104730000C4C2FD10B884FEA12452FE04FEA034370
:104740004FEA12454FEA134328E000BF02F0FF058D
:10475000B5EB136FA2F1013C2CEA020C0DD11CF059
:10476000803C08BF51F8043B0AD185EA0205B5EB4D
:10477000032F0AD150F8042BE8E74FEA13630DE04A
:1047800012F0FF0F06D051F8043B4FEA122523F038
:104790007F4303E04FF0000020BC704705F0FF02AC
:1047A00003F0FF00012828BF904204BF2D0A1B0A16
:1047B000F4D0A2EB000020BC704700BF20F0030142
:1047C00010F00300C0F1000051F8043B00F1040CAC
:1047D0004FEACC0C6FF000021CBF22FA0CF213431C
:1047E0004FF0010C4CEA0C2C4CEA0C4CA3EB0C02E5
:1047F00022EA030212EACC1204BF51F8043B04304F
:10480000F4D0C2F1000102EA0102B2FA82F2C2F16E
:104810001F0200EBD2007047002A3CD040EA01039F
:1048200013F00303F0B425D1032A23D904680D68DB
:10483000AC421FD1043A30D0A4F1013525EA04047A
:1048400014F0803F2CD1071D0D1D0DE057F8043BDF
:104850000E68A3F10134B34224EA03040AD1043AF6
:104860001BD014F0803F1ED1032A2946384605F19B
:104870000405EBD803780C78013AA34208D162B161
:1048800073B110F8013F11F8014F013AA342F6D07D
:10489000181BF0BC7047104670471046F0BC7047BC
:1048A0001846F0BC70470020F3E700BF40EA010360
:1048B0009B0770B42BD1032A29D90C460346214605
:1048C00054F8046BA6F1013525EA060515F0803F82
:1048D00005D1043A032A43F8046B2146EFD8A2B16C
:1048E0000C78013A1C70013101333CB16AB111F806
:1048F000014B013A03F8014B002CF7D12AB11A44BD
:10490000002103F8011B9342FBD170BC70470346A2
:10491000E5E700BF2DE9F0414FF0010E7446002598
:104920004FF0FF3663198B4200EB06070DD23F5D57
:1049300010F803C0BC452DD21D460124C6EB030E62
:1049400063198B4200EB0607F1D34FF00108444690
:10495000C2F800E000254FF0FF376319994200EBE1
:10496000070E0ED91EF804E010F803C0F44518D95C
:104970001D460124C7EB03086319994200EB070E9B
:10498000F0D80137701C874224BF3846C2F8008037
:10499000BDE8F0810CD04FF0010E2E4674467544F0
:1049A000C0E709D04FF001082F4644464544D4E7FC
:1049B000744505D00134B5E7444504D00134CCE753
:1049C0001D460124AEE71D460124C6E72DE9F04F40
:1049D000ADF2144D164605468B461046194603AAFD
:1049E0001C46FFF797FF804603AB0DF20C4243F8DD
:1049F000044F9342FBD15CB13246631E371904A8C1
:104A000012F8011BBA4240F8213003F1FF33F7D10D
:104A10000399304631444246FFF7B0FC00286DD17F
:104A200008F1FF330093F318824601932346814631
:104A3000544658469A4609EB0A073A1A0021284478
:104A400002F040FF002840F0AC80002F00F0A98069
:104A5000EB1913F8012C04AB53F822304BB124B1FD
:104A6000039A934201D2C2EB0A03994400243846C8
:104A7000E1E74445234638BF43460AF1FF3E73450C
:104A800013D203EB0902A85C16F803C02A4484453C
:104A900006EB030106D02DE011F801CF12F8010F4B
:104AA000844527D101337345F6D34445009980F0FE
:104AB0008780009B019809EB0302AB5C00782A44D5
:104AC00098427DD1019B06EB040B06E013F801ED43
:104AD00012F8010D864504D161465B4501F1FF3CAA
:104AE000F4D101348C4256D8039C3846A144C4EB1F
:104AF0000A04A0E7C8F101029144B6E7C8EB040339
:104B0000434538BF434608F1FF3701330393F31998
:104B10005846A246C34698464FF0000909EB0A04DE
:104B2000221A0021284402F0CDFED0BBCCB32B19B1
:104B300013F8012C04AB53F82230C3BB0AF1FF3049
:104B4000834514D209EB0B02AB5C16F80BE02A4448
:104B50009E4506EB0B015B4606D02BE011F801CF1A
:104B600012F801EFF44525D101338342F6D37B1CC3
:104B700011D009EB0702AB5C98F800102A44994267
:104B800014D1434605E013F8010D12F8011D8842C7
:104B90000CD1B342F7D105EB09000DF2144DBDE87D
:104BA000F08F00200DF2144DBDE8F08F039B994467
:104BB0002046B3E7CBF10102914499442046ADE78A
:104BC00041468EE70278002A00F003812DE9F04F7C
:104BD00091F8008085B04346B8F1000F15D08446A7
:104BE00001F1010E012402E01EF8013B63B19A427B
:104BF00014BF002404F001041CF8012F7746002A9A
:104C0000F2D19EF800301BB934B105B0BDE8F08F89
:104C1000002005B0BDE8F08F0E4605464146013044
:104C200003F0DAF9BC1B07460028F1D0012CECD0C8
:104C30002819874294BFC7EB000B4FF0010B1F2CC4
:104C400008D93846594632462346FFF7BFFE05B01D
:104C5000BDE8F08F214603AA3046FFF75BFE0399BB
:104C60008046024631443046FFF788FB002858D181
:104C700081460546B246584608F1FF330193F318C2
:104C800000932E19321A0021384402F01BFE00282E
:104C9000BED1002EBCD0C1454B4638BF43469C42D6
:104CA00012D95A19B95C1AF803003A4488420AEB3F
:104CB000030E06D02DE01EF8010F12F8011F8842E6
:104CC00027D101339C42F6D8019BC845194640F2D2
:104CD00083800098EA18BB5C00783A4498427BD104
:104CE000009B0AEB090B06E013F801CD12F801ED69
:104CF000F44504D101465B4501F1FF30F4D109F1DF
:104D0000010989456AD8039B30461D44C3EB040959
:104D1000B7E7C8F1010215441D444FF000093046C1
:104D2000AFE7C8EB0403434508F1FF3238BF434601
:104D300006EB02095846CB469146013303934FF0E8
:104D4000000A0AEB04052A1A0021384402F0BAFDD1
:104D500000287FF45DAF002D3FF45AAF444514D9CD
:104D60000AEB0802BB5C16F808003A44984206EBCE
:104D70000801434606D022E011F801EF12F8010FB6
:104D800086451CD101339C42F6D8B9F1FF3F11D0C2
:104D90000AEB0902BB5C9BF800103A44994214D11B
:104DA0005B4605E013F8010D12F8011D88420CD195
:104DB000B342F7D107EB0A0005B0BDE8F08FC8F1A8
:104DC000010292449A442846BBE7039B28469A4432
:104DD000B7E70B7823B97047414690E7781914E795
:104DE00000207047F0B420B307460D4617F8016B5A
:104DF00001E0A64216D015F8014B002CF9D1EEB116
:104E00003E460C4616F8015B00E073B114F8013B16
:104E1000AB42FAD15DB100233B70166006463046C6
:104E2000F0BC704763B13846DEE73746E8E72E4608
:104E3000F3E710680028D7D10646F0E71660EEE7E2
:104E4000176006460370EAE70123FFF7CBBF00BFF8
:104E50002DE9F04FC1B089460A920E93089002F0F6
:104E6000A7FA036818461793FFF7A8FCB9F80C30A7
:104E700018901C0604D5D9F81030002B01F0C28020
:104E800030AF3C464E4600231393169319930B9371
:104E9000259324932397149315930A9D2B78002B25
:104EA00000F0A980252B02D1A5E0252B03D015F811
:104EB000013F002BF9D10A9BEB1A73B1249A259973
:104EC00001320A981944072A84E80900259124929E
:104ED00072DC08340B9A1A440B922B78002B00F0EA
:104EE000E28700231A46691C6D788DF86F300C93A9
:104EF00007934FF0FF3A4B1CA5F12001582900F20F
:104F0000EA83DFE811F06D02E803E803D102E80369
:104F1000E803E803E803E803E803BC020D02E80342
:104F2000F4011102E803D8027B027B027B027B02C0
:104F30007B027B027B027B027B02E803E803E8033F
:104F4000E803E803E803E803E803E803E8038A0268
:104F5000DF02E803DF02E803E803E803E803CB032A
:104F6000E803E8032F03E803E803E803E803E803A2
:104F70004D03E803E8036703E803E803E803E803F5
:104F8000E803E803E803E803E803E80382032B02ED
:104F9000DF02DF02DF02CA022B02E803E803B202EB
:104FA000E803D203FB0119037402E803A303E80337
:104FB0007A00E803E80347020898314623AA0793DA
:104FC00003F070F850B93C46079B83E708983146D8
:104FD00023AA03F067F8002800F08581B146B9F8EC
:104FE0000C3013F0400F0B9B18BF4FF0FF331846E7
:104FF00041B0BDE8F08F0A9D6FE70A93079B9806C2
:1050000040F1D7820E9B03F1070929F0070303F152
:105010000802D3E900890E92012300229446CDF8BC
:1050200044A08DF86F20BAF1000F03DB079A22F03D
:105030008002079258EA090240F06F83BAF1000F2C
:1050400000F07484012B00F07283022B00F0C28404
:1050500039464FEAD80242EA49724FEAD90008F0CD
:10506000070381469046303358EA090201F8013DB2
:10507000EFD1079A1091D20700F17F857B1A0D932B
:105080000D9A53469245B8BF1346099300231293D5
:10509000BCF1000F02D0099B01330993079B13F069
:1050A00002030F9302D0099B02330993079B13F06D
:1050B000840940F02F830C9B099AC2EB0308B8F1D6
:1050C000000F40F32783B8F1100F2599249ADFF8D9
:1050D00070A529DD53464FF0100BC246A8461D4669
:1050E00006E0AAF1100ABAF1100F04F1080417DD66
:1050F00001321031072A2591249284E82008F0DD3E
:105100000898314623AA02F0CDFF00287FF466AF4D
:10511000AAF1100ABAF1100F3C462599249AE7DC4F
:105120002B464546D0469A46013208EB010B072A2A
:10513000CDF894B02492C4F800A0C4F8048000F321
:10514000DE829DF86FC00834BCF1000F0FD0249BA5
:105150000BF1010B01330DF16F010122072BCDF88B
:1051600094B0249384E8060000F3FD8308340F9B79
:1051700073B1249B0BF1020B01331CA90222072BF4
:10518000CDF894B0249384E8060000F3F983083442
:10519000B9F1800F00F03483119B0D9AC2EB030A22
:1051A000BAF1000F3CDDBAF1100F249ADFF89494A5
:1051B0002BDD49465B46A9464FF01008DDF820B0CC
:1051C0000D4606E0AAF1100ABAF1100F04F1080426
:1051D00017DD01321033072A2593249284E8200139
:1051E000F0DD5846314623AA02F05CFF00287FF428
:1051F000F5AEAAF1100ABAF1100F3C46259B249A8D
:10520000E7DC9B462B464D4699460132D344072A9C
:10521000CDF894B0249284E8000600F39883083413
:10522000079BD90500F18F82249B0D990133109AB9
:105230008B44072BCDF894B022606160249300F377
:10524000B8830834079B5A0741D50C9B099A9D1ACD
:10525000002D3CDD102D249BDFF8E4A323DD4FF06F
:1052600010085A46DDF8209004E0103D102D04F19E
:10527000080417DD01331032072B25922493C4F85C
:1052800000A0C4F80480F0DD4846314623AA02F0AD
:1052900009FF00287FF4A2AE103D102D3C46259A50
:1052A000249BE7DC93460133AB44072BCDF894B045
:1052B0002493C4F800A0656009DD0898314623AA4C
:1052C00002F0F0FE00287FF489AEDDF894B00B9B6D
:1052D000099A0C998A42ACBF9B185B180B93BBF1DF
:1052E000000F7FF473AE002324933C46D5E51946A6
:1052F000079840F0040007901D78FCE50A93079B8F
:1053000013F0200300F038810E9B03F1070929F008
:10531000070303F10802D3E900890E9200237CE61B
:105320001D7819462B22E6E51D78591C2A2D00F020
:10533000E587A5F1300009280B464FF0000A3FF63B
:10534000DBAD13F8015B0AEB8A0A00EB4A0AA5F110
:1053500030000928F5D94AEAEA7ACDE50A93079B95
:105360008DF86F20980662D50E9B03F1070929F08E
:105370000709D9E9002309F10801904699460E91E1
:10538000002A73F1000364DB9DF86FC0CDF844A0E0
:10539000012348E60A93A74B8DF86F201693079BCD
:1053A0009B0640F120810E9B03F1070929F00703BA
:1053B00003F108020E92D3E90089079BD90740F157
:1053C000228158EA090300F01E81079A302342F037
:1053D00002028DF870308DF87150079202231CE69E
:1053E000002A40F0E5841D781946202283E50799BC
:1053F00041F0200107911D7819467CE5A5F13000A8
:10540000002113F8015B01EB810100EB4101A5F1E3
:1054100030000928F5D90C916EE50A93079B8DF8A9
:105420006F2043F010030793079B98069CD4079BBB
:10543000D90640F1C1840E9A13461B6804320E92BD
:105440004FEAE3791A4698464B46002A73F1000367
:105450009ADA4FF02D0CD8F1000869EB49098DF864
:105460006FC0CDF844A00123DDE51D7807996C2DB0
:1054700000F0258541F01001079119463BE50E9D8E
:10548000296808460C912946002801F10401C0F260
:105490001D850E911D7819462DE5079941F04001B3
:1054A00007911D78194626E5079941F001010791FA
:1054B0001D7819461FE5079941F0800107911D7875
:1054C000194618E50A93079B8DF86F2013F0080F13
:1054D0000E9BD34603F1070900F0378429F0070338
:1054E00003F108020E921A685B68149215931599DD
:1054F000149802F033FD01281599149840F00B849C
:105500000022002303F024FE002840F039869DF895
:105510006FC0079B484A23F0800307931346DFF8C8
:1055200028E10321472DD8BF73460020099111902F
:1055300010930D911290ABE50E9907980A933023C2
:105540000A688DF870303B4B782540F0020004313A
:10555000169307900E9190464FF000098DF8715008
:1055600002235AE50A93079B43F010030793079B16
:1055700013F020037FF4C8AE079A12F0100240F037
:105580000A83079B13F0400300F005830E9913462E
:105590000A460432B1F800804FF000090E923CE553
:1055A0000A93079B43F010030793079B98063FF568
:1055B00029AD079BD90600F1F782079B5A0640F1F7
:1055C000F3820E9A4FF00009B2F8008004320123F2
:1055D0000E9222E50A93194B8DF86F201693079BC4
:1055E0009B063FF5E0AE079BD80640F1BB830E9AC1
:1055F00013461B6804329846079B0E92D9074FF05A
:1056000000093FF5DEAE022307E50E980A93026813
:1056100000238DF89820024601219C4604328DF823
:105620006F301193129326AB09910E920D91109346
:1056300034E500BF489E0008289E0008349E0008FC
:10564000689E0008149E0008249E00080E9A0A9383
:1056500013684FF0000B10938DF86FB002F104093E
:10566000002B00F05885BAF1000F1098C0F2EA84C0
:105670005946524602F026F9002800F08985109B11
:10568000CDF844B0C31A0D93CDF8389023EAE373F4
:105690000993CDF848B09DF86FC0F9E4079941F03F
:1056A000080107911D78194625E40A93079B8DF898
:1056B0006F209A0640F165830E9A134604330E93C9
:1056C0000B9B11684FEAE3791A4698464B46C1E9AD
:1056D0000023FFF7E2BB0A938DF86F20002D00F046
:1056E000E283002301229C468DF86F3011931293C0
:1056F00026AB09928DF898500D921093CEE408983D
:10570000314623AA02F0CEFC00287FF467AC3C4669
:105710009DF86FC0DDF894B016E5012B7FF495ACD1
:10572000B9F1000F08BFB8F10A0F80F006820DF53D
:10573000807B08F130080BF8418DCBEB07030D930C
:10574000CDF840B09CE4652D40F3A08014981599E5
:105750000022002303F0F2FC002800F05481249B77
:10576000C14901330BF1010B0122072BCDF894B095
:10577000249384E8060000F33E8308341D9B139AAB
:10578000934203DB079BDA077FF55CAD249B1899F6
:105790000133179A8B44072BCDF894B022606160D7
:1057A000249300F31A840834139B5D1E002D7FF7A9
:1057B00049AD102D249BDFF8B49240F3EF804FF0F9
:1057C00010085A46DDF820A004E00834103D102DE2
:1057D00040F3E38001331032072B25922493C4F861
:1057E0000090C4F80480F0DD5046314623AA02F050
:1057F00059FC00287FF4F2AB3C46259A249BE5E750
:105800000C9B099AC2EB030ABAF1000F7FF7C4ACF4
:10581000BAF1100F249ADFF854922BDD49465B460B
:10582000A9464FF01008DDF820B00D4606E0AAF1B9
:10583000100ABAF1100F04F1080417DD0132103319
:10584000072A2593249284E82001F0DD584631464A
:1058500023AA02F027FC00287FF4C0ABAAF1100AAB
:10586000BAF1100F3C46259B249AE7DC9B462B4659
:105870004D4699460132D344072ACDF894B024927C
:1058800084E8000600F33A82083485E4139B249DE3
:10589000012B40F3FC81013510990BF1010301222A
:1058A000072D259321602495626000F30E82083451
:1058B0001899013503EB010B179B072DCDF894B018
:1058C00024952360616000F30C820834002314984F
:1058D0001599002203F032FC139B002840F0E3806E
:1058E000109A013B013501329B44072D226024951B
:1058F000CDF894B0636000F313810834199A013530
:1059000093441FAB072DCDF894B0249562602360BB
:105910007FF797AC0898314623AA02F0C3FB002812
:105920007FF45CAB3C46DDF894B08BE4002B4CD1AB
:10593000079BD80749D50DF5807B30230BF8413DF7
:10594000CBEB07030D93CDF840B0FFF799BB089858
:10595000314623AA02F0A6FB00287FF43FAB3C4669
:10596000DDF894B05CE40898314623AA02F09AFB73
:1059700000287FF433AB3C46DDF894B0FFF7F7BB6B
:105980000898314623AA02F08DFB00287FF426AB4D
:105990003C46DDF894B0FFF7FBBB93460133AB44C4
:1059A000072BCDF894B02493C4F8009065607FF77E
:1059B00048AC0898314623AA02F074FB00287FF413
:1059C0000DABDDF894B03C463CE4CDF834A0109724
:1059D000FFF756BBBB4616984FEA181343EA097304
:1059E0004FEA191108F00F0289469846835C0BF8BC
:1059F000013D58EA0903EFD15B46CDF840B0FB1AF0
:105A00000D93FFF73DBB1D9D002D40F30082139ABF
:105A1000129913468A42A8BF0B461D461099002DC5
:105A200001EB020A0CDD0A46249BAB440133072B31
:105A3000CDF894B084E82400249300F3488308341C
:105A4000129B002DA8BF5B1B002B1D4640F3C1809D
:105A5000102D249BDFF8149040F3C0815A464FF07C
:105A60001008DDF820B008E0649E0008149E0008CD
:105A70000834103D102D40F3B08101331032072B54
:105A800025922493C4F80090C4F80480F0DD5846B1
:105A9000314623AA02F006FB00287FF49FAA3C4669
:105AA000259A249BE5E703F1FF38B8F1000F7FF753
:105AB00025AFB8F1100FDFF8489525DD5B464FF0B4
:105AC000100ADDF820B006E0A8F11008B8F1100FB8
:105AD00004F1080417DD01351033072D25932495B3
